{
	"contracts/error_handling.sol": {
		"ExampleContract": {
			"abi": [
				{
					"inputs": [
						{
							"internalType": "uint256",
							"name": "a",
							"type": "uint256"
						},
						{
							"internalType": "uint256",
							"name": "b",
							"type": "uint256"
						}
					],
					"name": "add",
					"outputs": [
						{
							"internalType": "uint256",
							"name": "",
							"type": "uint256"
						}
					],
					"stateMutability": "pure",
					"type": "function"
				},
				{
					"inputs": [
						{
							"internalType": "uint256",
							"name": "a",
							"type": "uint256"
						},
						{
							"internalType": "uint256",
							"name": "b",
							"type": "uint256"
						}
					],
					"name": "divide",
					"outputs": [
						{
							"internalType": "uint256",
							"name": "",
							"type": "uint256"
						}
					],
					"stateMutability": "pure",
					"type": "function"
				},
				{
					"inputs": [
						{
							"internalType": "uint256",
							"name": "a",
							"type": "uint256"
						},
						{
							"internalType": "uint256",
							"name": "b",
							"type": "uint256"
						}
					],
					"name": "fail",
					"outputs": [
						{
							"internalType": "uint256",
							"name": "",
							"type": "uint256"
						}
					],
					"stateMutability": "pure",
					"type": "function"
				}
			],
			"devdoc": {
				"kind": "dev",
				"methods": {},
				"version": 1
			},
			"evm": {
				"assembly": "    /* \"contracts/error_handling.sol\":64:629  contract ExampleContract {... */\n  mstore(0x40, 0x80)\n  callvalue\n  dup1\n  iszero\n  tag_1\n  jumpi\n  0x00\n  dup1\n  revert\ntag_1:\n  pop\n  dataSize(sub_0)\n  dup1\n  dataOffset(sub_0)\n  0x00\n  codecopy\n  0x00\n  return\nstop\n\nsub_0: assembly {\n        /* \"contracts/error_handling.sol\":64:629  contract ExampleContract {... */\n      mstore(0x40, 0x80)\n      callvalue\n      dup1\n      iszero\n      tag_1\n      jumpi\n      0x00\n      dup1\n      revert\n    tag_1:\n      pop\n      jumpi(tag_2, lt(calldatasize, 0x04))\n      shr(0xe0, calldataload(0x00))\n      dup1\n      0x771602f7\n      eq\n      tag_3\n      jumpi\n      dup1\n      0xb8b1b338\n      eq\n      tag_4\n      jumpi\n      dup1\n      0xf88e9fbf\n      eq\n      tag_5\n      jumpi\n    tag_2:\n      0x00\n      dup1\n      revert\n        /* \"contracts/error_handling.sol\":98:253  function add(uint256 a, uint256 b) public pure returns (uint256) {... */\n    tag_3:\n      tag_6\n      0x04\n      dup1\n      calldatasize\n      sub\n      dup2\n      add\n      swap1\n      tag_7\n      swap2\n      swap1\n      tag_8\n      jump\t// in\n    tag_7:\n      tag_9\n      jump\t// in\n    tag_6:\n      mload(0x40)\n      tag_10\n      swap2\n      swap1\n      tag_11\n      jump\t// in\n    tag_10:\n      mload(0x40)\n      dup1\n      swap2\n      sub\n      swap1\n      return\n        /* \"contracts/error_handling.sol\":436:626  function fail(uint256 a, uint256 b) public pure returns (uint256){... */\n    tag_4:\n      tag_12\n      0x04\n      dup1\n      calldatasize\n      sub\n      dup2\n      add\n      swap1\n      tag_13\n      swap2\n      swap1\n      tag_8\n      jump\t// in\n    tag_13:\n      tag_14\n      jump\t// in\n    tag_12:\n      mload(0x40)\n      tag_15\n      swap2\n      swap1\n      tag_11\n      jump\t// in\n    tag_15:\n      mload(0x40)\n      dup1\n      swap2\n      sub\n      swap1\n      return\n        /* \"contracts/error_handling.sol\":261:428  function divide(uint256 a, uint256 b) public pure returns (uint256) {... */\n    tag_5:\n      tag_16\n      0x04\n      dup1\n      calldatasize\n      sub\n      dup2\n      add\n      swap1\n      tag_17\n      swap2\n      swap1\n      tag_8\n      jump\t// in\n    tag_17:\n      tag_18\n      jump\t// in\n    tag_16:\n      mload(0x40)\n      tag_19\n      swap2\n      swap1\n      tag_11\n      jump\t// in\n    tag_19:\n      mload(0x40)\n      dup1\n      swap2\n      sub\n      swap1\n      return\n        /* \"contracts/error_handling.sol\":98:253  function add(uint256 a, uint256 b) public pure returns (uint256) {... */\n    tag_9:\n        /* \"contracts/error_handling.sol\":154:161  uint256 */\n      0x00\n        /* \"contracts/error_handling.sol\":174:183  uint256 c */\n      dup1\n        /* \"contracts/error_handling.sol\":190:191  b */\n      dup3\n        /* \"contracts/error_handling.sol\":186:187  a */\n      dup5\n        /* \"contracts/error_handling.sol\":186:191  a + b */\n      tag_21\n      swap2\n      swap1\n      tag_22\n      jump\t// in\n    tag_21:\n        /* \"contracts/error_handling.sol\":174:191  uint256 c = a + b */\n      swap1\n      pop\n        /* \"contracts/error_handling.sol\":214:215  a */\n      dup4\n        /* \"contracts/error_handling.sol\":209:210  c */\n      dup2\n        /* \"contracts/error_handling.sol\":209:215  c >= a */\n      lt\n      iszero\n        /* \"contracts/error_handling.sol\":209:225  c >= a && c >= b */\n      dup1\n      iszero\n      tag_23\n      jumpi\n      pop\n        /* \"contracts/error_handling.sol\":224:225  b */\n      dup3\n        /* \"contracts/error_handling.sol\":219:220  c */\n      dup2\n        /* \"contracts/error_handling.sol\":219:225  c >= b */\n      lt\n      iszero\n        /* \"contracts/error_handling.sol\":209:225  c >= a && c >= b */\n    tag_23:\n        /* \"contracts/error_handling.sol\":202:226  assert(c >= a && c >= b) */\n      tag_24\n      jumpi\n      tag_25\n      tag_26\n      jump\t// in\n    tag_25:\n    tag_24:\n        /* \"contracts/error_handling.sol\":244:245  c */\n      dup1\n        /* \"contracts/error_handling.sol\":237:245  return c */\n      swap2\n      pop\n      pop\n        /* \"contracts/error_handling.sol\":98:253  function add(uint256 a, uint256 b) public pure returns (uint256) {... */\n      swap3\n      swap2\n      pop\n      pop\n      jump\t// out\n        /* \"contracts/error_handling.sol\":436:626  function fail(uint256 a, uint256 b) public pure returns (uint256){... */\n    tag_14:\n        /* \"contracts/error_handling.sol\":493:500  uint256 */\n      0x00\n        /* \"contracts/error_handling.sol\":520:521  0 */\n      dup1\n        /* \"contracts/error_handling.sol\":515:516  b */\n      dup3\n        /* \"contracts/error_handling.sol\":515:521  b == 0 */\n      sub\n        /* \"contracts/error_handling.sol\":512:596  if(b == 0){... */\n      tag_28\n      jumpi\n        /* \"contracts/error_handling.sol\":537:584  revert(\"Cannot divide by zero as revert sayes\") */\n      mload(0x40)\n      0x08c379a000000000000000000000000000000000000000000000000000000000\n      dup2\n      mstore\n      0x04\n      add\n      tag_29\n      swap1\n      tag_30\n      jump\t// in\n    tag_29:\n      mload(0x40)\n      dup1\n      swap2\n      sub\n      swap1\n      revert\n        /* \"contracts/error_handling.sol\":512:596  if(b == 0){... */\n    tag_28:\n        /* \"contracts/error_handling.sol\":617:618  b */\n      dup2\n        /* \"contracts/error_handling.sol\":613:614  a */\n      dup4\n        /* \"contracts/error_handling.sol\":613:618  a / b */\n      tag_31\n      swap2\n      swap1\n      tag_32\n      jump\t// in\n    tag_31:\n        /* \"contracts/error_handling.sol\":606:618  return a / b */\n      swap1\n      pop\n        /* \"contracts/error_handling.sol\":436:626  function fail(uint256 a, uint256 b) public pure returns (uint256){... */\n      swap3\n      swap2\n      pop\n      pop\n      jump\t// out\n        /* \"contracts/error_handling.sol\":261:428  function divide(uint256 a, uint256 b) public pure returns (uint256) {... */\n    tag_18:\n        /* \"contracts/error_handling.sol\":320:327  uint256 */\n      0x00\n        /* \"contracts/error_handling.sol\":353:354  0 */\n      dup1\n        /* \"contracts/error_handling.sol\":348:349  b */\n      dup3\n        /* \"contracts/error_handling.sol\":348:354  b != 0 */\n      sub\n        /* \"contracts/error_handling.sol\":340:397  require(b != 0, \"Cannot divide by zero as require sayes\") */\n      tag_34\n      jumpi\n      mload(0x40)\n      0x08c379a000000000000000000000000000000000000000000000000000000000\n      dup2\n      mstore\n      0x04\n      add\n      tag_35\n      swap1\n      tag_36\n      jump\t// in\n    tag_35:\n      mload(0x40)\n      dup1\n      swap2\n      sub\n      swap1\n      revert\n    tag_34:\n        /* \"contracts/error_handling.sol\":419:420  b */\n      dup2\n        /* \"contracts/error_handling.sol\":415:416  a */\n      dup4\n        /* \"contracts/error_handling.sol\":415:420  a / b */\n      tag_37\n      swap2\n      swap1\n      tag_32\n      jump\t// in\n    tag_37:\n        /* \"contracts/error_handling.sol\":408:420  return a / b */\n      swap1\n      pop\n        /* \"contracts/error_handling.sol\":261:428  function divide(uint256 a, uint256 b) public pure returns (uint256) {... */\n      swap3\n      swap2\n      pop\n      pop\n      jump\t// out\n        /* \"#utility.yul\":88:205   */\n    tag_39:\n        /* \"#utility.yul\":197:198   */\n      0x00\n        /* \"#utility.yul\":194:195   */\n      dup1\n        /* \"#utility.yul\":187:199   */\n      revert\n        /* \"#utility.yul\":334:411   */\n    tag_41:\n        /* \"#utility.yul\":371:378   */\n      0x00\n        /* \"#utility.yul\":400:405   */\n      dup2\n        /* \"#utility.yul\":389:405   */\n      swap1\n      pop\n        /* \"#utility.yul\":334:411   */\n      swap2\n      swap1\n      pop\n      jump\t// out\n        /* \"#utility.yul\":417:539   */\n    tag_42:\n        /* \"#utility.yul\":490:514   */\n      tag_58\n        /* \"#utility.yul\":508:513   */\n      dup2\n        /* \"#utility.yul\":490:514   */\n      tag_41\n      jump\t// in\n    tag_58:\n        /* \"#utility.yul\":483:488   */\n      dup2\n        /* \"#utility.yul\":480:515   */\n      eq\n        /* \"#utility.yul\":470:533   */\n      tag_59\n      jumpi\n        /* \"#utility.yul\":529:530   */\n      0x00\n        /* \"#utility.yul\":526:527   */\n      dup1\n        /* \"#utility.yul\":519:531   */\n      revert\n        /* \"#utility.yul\":470:533   */\n    tag_59:\n        /* \"#utility.yul\":417:539   */\n      pop\n      jump\t// out\n        /* \"#utility.yul\":545:684   */\n    tag_43:\n        /* \"#utility.yul\":591:596   */\n      0x00\n        /* \"#utility.yul\":629:635   */\n      dup2\n        /* \"#utility.yul\":616:636   */\n      calldataload\n        /* \"#utility.yul\":607:636   */\n      swap1\n      pop\n        /* \"#utility.yul\":645:678   */\n      tag_61\n        /* \"#utility.yul\":672:677   */\n      dup2\n        /* \"#utility.yul\":645:678   */\n      tag_42\n      jump\t// in\n    tag_61:\n        /* \"#utility.yul\":545:684   */\n      swap3\n      swap2\n      pop\n      pop\n      jump\t// out\n        /* \"#utility.yul\":690:1164   */\n    tag_8:\n        /* \"#utility.yul\":758:764   */\n      0x00\n        /* \"#utility.yul\":766:772   */\n      dup1\n        /* \"#utility.yul\":815:817   */\n      0x40\n        /* \"#utility.yul\":803:812   */\n      dup4\n        /* \"#utility.yul\":794:801   */\n      dup6\n        /* \"#utility.yul\":790:813   */\n      sub\n        /* \"#utility.yul\":786:818   */\n      slt\n        /* \"#utility.yul\":783:902   */\n      iszero\n      tag_63\n      jumpi\n        /* \"#utility.yul\":821:900   */\n      tag_64\n      tag_39\n      jump\t// in\n    tag_64:\n        /* \"#utility.yul\":783:902   */\n    tag_63:\n        /* \"#utility.yul\":941:942   */\n      0x00\n        /* \"#utility.yul\":966:1019   */\n      tag_65\n        /* \"#utility.yul\":1011:1018   */\n      dup6\n        /* \"#utility.yul\":1002:1008   */\n      dup3\n        /* \"#utility.yul\":991:1000   */\n      dup7\n        /* \"#utility.yul\":987:1009   */\n      add\n        /* \"#utility.yul\":966:1019   */\n      tag_43\n      jump\t// in\n    tag_65:\n        /* \"#utility.yul\":956:1019   */\n      swap3\n      pop\n        /* \"#utility.yul\":912:1029   */\n      pop\n        /* \"#utility.yul\":1068:1070   */\n      0x20\n        /* \"#utility.yul\":1094:1147   */\n      tag_66\n        /* \"#utility.yul\":1139:1146   */\n      dup6\n        /* \"#utility.yul\":1130:1136   */\n      dup3\n        /* \"#utility.yul\":1119:1128   */\n      dup7\n        /* \"#utility.yul\":1115:1137   */\n      add\n        /* \"#utility.yul\":1094:1147   */\n      tag_43\n      jump\t// in\n    tag_66:\n        /* \"#utility.yul\":1084:1147   */\n      swap2\n      pop\n        /* \"#utility.yul\":1039:1157   */\n      pop\n        /* \"#utility.yul\":690:1164   */\n      swap3\n      pop\n      swap3\n      swap1\n      pop\n      jump\t// out\n        /* \"#utility.yul\":1170:1288   */\n    tag_44:\n        /* \"#utility.yul\":1257:1281   */\n      tag_68\n        /* \"#utility.yul\":1275:1280   */\n      dup2\n        /* \"#utility.yul\":1257:1281   */\n      tag_41\n      jump\t// in\n    tag_68:\n        /* \"#utility.yul\":1252:1255   */\n      dup3\n        /* \"#utility.yul\":1245:1282   */\n      mstore\n        /* \"#utility.yul\":1170:1288   */\n      pop\n      pop\n      jump\t// out\n        /* \"#utility.yul\":1294:1516   */\n    tag_11:\n        /* \"#utility.yul\":1387:1391   */\n      0x00\n        /* \"#utility.yul\":1425:1427   */\n      0x20\n        /* \"#utility.yul\":1414:1423   */\n      dup3\n        /* \"#utility.yul\":1410:1428   */\n      add\n        /* \"#utility.yul\":1402:1428   */\n      swap1\n      pop\n        /* \"#utility.yul\":1438:1509   */\n      tag_70\n        /* \"#utility.yul\":1506:1507   */\n      0x00\n        /* \"#utility.yul\":1495:1504   */\n      dup4\n        /* \"#utility.yul\":1491:1508   */\n      add\n        /* \"#utility.yul\":1482:1488   */\n      dup5\n        /* \"#utility.yul\":1438:1509   */\n      tag_44\n      jump\t// in\n    tag_70:\n        /* \"#utility.yul\":1294:1516   */\n      swap3\n      swap2\n      pop\n      pop\n      jump\t// out\n        /* \"#utility.yul\":1522:1702   */\n    tag_45:\n        /* \"#utility.yul\":1570:1647   */\n      0x4e487b7100000000000000000000000000000000000000000000000000000000\n        /* \"#utility.yul\":1567:1568   */\n      0x00\n        /* \"#utility.yul\":1560:1648   */\n      mstore\n        /* \"#utility.yul\":1667:1671   */\n      0x11\n        /* \"#utility.yul\":1664:1665   */\n      0x04\n        /* \"#utility.yul\":1657:1672   */\n      mstore\n        /* \"#utility.yul\":1691:1695   */\n      0x24\n        /* \"#utility.yul\":1688:1689   */\n      0x00\n        /* \"#utility.yul\":1681:1696   */\n      revert\n        /* \"#utility.yul\":1708:2013   */\n    tag_22:\n        /* \"#utility.yul\":1748:1751   */\n      0x00\n        /* \"#utility.yul\":1767:1787   */\n      tag_73\n        /* \"#utility.yul\":1785:1786   */\n      dup3\n        /* \"#utility.yul\":1767:1787   */\n      tag_41\n      jump\t// in\n    tag_73:\n        /* \"#utility.yul\":1762:1787   */\n      swap2\n      pop\n        /* \"#utility.yul\":1801:1821   */\n      tag_74\n        /* \"#utility.yul\":1819:1820   */\n      dup4\n        /* \"#utility.yul\":1801:1821   */\n      tag_41\n      jump\t// in\n    tag_74:\n        /* \"#utility.yul\":1796:1821   */\n      swap3\n      pop\n        /* \"#utility.yul\":1955:1956   */\n      dup3\n        /* \"#utility.yul\":1887:1953   */\n      0xffffffffffffffffffffffffffffffffffffffffffffffffffffffffffffffff\n        /* \"#utility.yul\":1883:1957   */\n      sub\n        /* \"#utility.yul\":1880:1881   */\n      dup3\n        /* \"#utility.yul\":1877:1958   */\n      gt\n        /* \"#utility.yul\":1874:1981   */\n      iszero\n      tag_75\n      jumpi\n        /* \"#utility.yul\":1961:1979   */\n      tag_76\n      tag_45\n      jump\t// in\n    tag_76:\n        /* \"#utility.yul\":1874:1981   */\n    tag_75:\n        /* \"#utility.yul\":2005:2006   */\n      dup3\n        /* \"#utility.yul\":2002:2003   */\n      dup3\n        /* \"#utility.yul\":1998:2007   */\n      add\n        /* \"#utility.yul\":1991:2007   */\n      swap1\n      pop\n        /* \"#utility.yul\":1708:2013   */\n      swap3\n      swap2\n      pop\n      pop\n      jump\t// out\n        /* \"#utility.yul\":2019:2199   */\n    tag_26:\n        /* \"#utility.yul\":2067:2144   */\n      0x4e487b7100000000000000000000000000000000000000000000000000000000\n        /* \"#utility.yul\":2064:2065   */\n      0x00\n        /* \"#utility.yul\":2057:2145   */\n      mstore\n        /* \"#utility.yul\":2164:2168   */\n      0x01\n        /* \"#utility.yul\":2161:2162   */\n      0x04\n        /* \"#utility.yul\":2154:2169   */\n      mstore\n        /* \"#utility.yul\":2188:2192   */\n      0x24\n        /* \"#utility.yul\":2185:2186   */\n      0x00\n        /* \"#utility.yul\":2178:2193   */\n      revert\n        /* \"#utility.yul\":2205:2374   */\n    tag_46:\n        /* \"#utility.yul\":2289:2300   */\n      0x00\n        /* \"#utility.yul\":2323:2329   */\n      dup3\n        /* \"#utility.yul\":2318:2321   */\n      dup3\n        /* \"#utility.yul\":2311:2330   */\n      mstore\n        /* \"#utility.yul\":2363:2367   */\n      0x20\n        /* \"#utility.yul\":2358:2361   */\n      dup3\n        /* \"#utility.yul\":2354:2368   */\n      add\n        /* \"#utility.yul\":2339:2368   */\n      swap1\n      pop\n        /* \"#utility.yul\":2205:2374   */\n      swap3\n      swap2\n      pop\n      pop\n      jump\t// out\n        /* \"#utility.yul\":2380:2604   */\n    tag_47:\n        /* \"#utility.yul\":2520:2554   */\n      0x43616e6e6f7420646976696465206279207a65726f2061732072657665727420\n        /* \"#utility.yul\":2516:2517   */\n      0x00\n        /* \"#utility.yul\":2508:2514   */\n      dup3\n        /* \"#utility.yul\":2504:2518   */\n      add\n        /* \"#utility.yul\":2497:2555   */\n      mstore\n        /* \"#utility.yul\":2589:2596   */\n      0x7361796573000000000000000000000000000000000000000000000000000000\n        /* \"#utility.yul\":2584:2586   */\n      0x20\n        /* \"#utility.yul\":2576:2582   */\n      dup3\n        /* \"#utility.yul\":2572:2587   */\n      add\n        /* \"#utility.yul\":2565:2597   */\n      mstore\n        /* \"#utility.yul\":2380:2604   */\n      pop\n      jump\t// out\n        /* \"#utility.yul\":2610:2976   */\n    tag_48:\n        /* \"#utility.yul\":2752:2755   */\n      0x00\n        /* \"#utility.yul\":2773:2840   */\n      tag_81\n        /* \"#utility.yul\":2837:2839   */\n      0x25\n        /* \"#utility.yul\":2832:2835   */\n      dup4\n        /* \"#utility.yul\":2773:2840   */\n      tag_46\n      jump\t// in\n    tag_81:\n        /* \"#utility.yul\":2766:2840   */\n      swap2\n      pop\n        /* \"#utility.yul\":2849:2942   */\n      tag_82\n        /* \"#utility.yul\":2938:2941   */\n      dup3\n        /* \"#utility.yul\":2849:2942   */\n      tag_47\n      jump\t// in\n    tag_82:\n        /* \"#utility.yul\":2967:2969   */\n      0x40\n        /* \"#utility.yul\":2962:2965   */\n      dup3\n        /* \"#utility.yul\":2958:2970   */\n      add\n        /* \"#utility.yul\":2951:2970   */\n      swap1\n      pop\n        /* \"#utility.yul\":2610:2976   */\n      swap2\n      swap1\n      pop\n      jump\t// out\n        /* \"#utility.yul\":2982:3401   */\n    tag_30:\n        /* \"#utility.yul\":3148:3152   */\n      0x00\n        /* \"#utility.yul\":3186:3188   */\n      0x20\n        /* \"#utility.yul\":3175:3184   */\n      dup3\n        /* \"#utility.yul\":3171:3189   */\n      add\n        /* \"#utility.yul\":3163:3189   */\n      swap1\n      pop\n        /* \"#utility.yul\":3235:3244   */\n      dup2\n        /* \"#utility.yul\":3229:3233   */\n      dup2\n        /* \"#utility.yul\":3225:3245   */\n      sub\n        /* \"#utility.yul\":3221:3222   */\n      0x00\n        /* \"#utility.yul\":3210:3219   */\n      dup4\n        /* \"#utility.yul\":3206:3223   */\n      add\n        /* \"#utility.yul\":3199:3246   */\n      mstore\n        /* \"#utility.yul\":3263:3394   */\n      tag_84\n        /* \"#utility.yul\":3389:3393   */\n      dup2\n        /* \"#utility.yul\":3263:3394   */\n      tag_48\n      jump\t// in\n    tag_84:\n        /* \"#utility.yul\":3255:3394   */\n      swap1\n      pop\n        /* \"#utility.yul\":2982:3401   */\n      swap2\n      swap1\n      pop\n      jump\t// out\n        /* \"#utility.yul\":3407:3587   */\n    tag_49:\n        /* \"#utility.yul\":3455:3532   */\n      0x4e487b7100000000000000000000000000000000000000000000000000000000\n        /* \"#utility.yul\":3452:3453   */\n      0x00\n        /* \"#utility.yul\":3445:3533   */\n      mstore\n        /* \"#utility.yul\":3552:3556   */\n      0x12\n        /* \"#utility.yul\":3549:3550   */\n      0x04\n        /* \"#utility.yul\":3542:3557   */\n      mstore\n        /* \"#utility.yul\":3576:3580   */\n      0x24\n        /* \"#utility.yul\":3573:3574   */\n      0x00\n        /* \"#utility.yul\":3566:3581   */\n      revert\n        /* \"#utility.yul\":3593:3778   */\n    tag_32:\n        /* \"#utility.yul\":3633:3634   */\n      0x00\n        /* \"#utility.yul\":3650:3670   */\n      tag_87\n        /* \"#utility.yul\":3668:3669   */\n      dup3\n        /* \"#utility.yul\":3650:3670   */\n      tag_41\n      jump\t// in\n    tag_87:\n        /* \"#utility.yul\":3645:3670   */\n      swap2\n      pop\n        /* \"#utility.yul\":3684:3704   */\n      tag_88\n        /* \"#utility.yul\":3702:3703   */\n      dup4\n        /* \"#utility.yul\":3684:3704   */\n      tag_41\n      jump\t// in\n    tag_88:\n        /* \"#utility.yul\":3679:3704   */\n      swap3\n      pop\n        /* \"#utility.yul\":3723:3724   */\n      dup3\n        /* \"#utility.yul\":3713:3748   */\n      tag_89\n      jumpi\n        /* \"#utility.yul\":3728:3746   */\n      tag_90\n      tag_49\n      jump\t// in\n    tag_90:\n        /* \"#utility.yul\":3713:3748   */\n    tag_89:\n        /* \"#utility.yul\":3770:3771   */\n      dup3\n        /* \"#utility.yul\":3767:3768   */\n      dup3\n        /* \"#utility.yul\":3763:3772   */\n      div\n        /* \"#utility.yul\":3758:3772   */\n      swap1\n      pop\n        /* \"#utility.yul\":3593:3778   */\n      swap3\n      swap2\n      pop\n      pop\n      jump\t// out\n        /* \"#utility.yul\":3784:4009   */\n    tag_50:\n        /* \"#utility.yul\":3924:3958   */\n      0x43616e6e6f7420646976696465206279207a65726f2061732072657175697265\n        /* \"#utility.yul\":3920:3921   */\n      0x00\n        /* \"#utility.yul\":3912:3918   */\n      dup3\n        /* \"#utility.yul\":3908:3922   */\n      add\n        /* \"#utility.yul\":3901:3959   */\n      mstore\n        /* \"#utility.yul\":3993:4001   */\n      0x2073617965730000000000000000000000000000000000000000000000000000\n        /* \"#utility.yul\":3988:3990   */\n      0x20\n        /* \"#utility.yul\":3980:3986   */\n      dup3\n        /* \"#utility.yul\":3976:3991   */\n      add\n        /* \"#utility.yul\":3969:4002   */\n      mstore\n        /* \"#utility.yul\":3784:4009   */\n      pop\n      jump\t// out\n        /* \"#utility.yul\":4015:4381   */\n    tag_51:\n        /* \"#utility.yul\":4157:4160   */\n      0x00\n        /* \"#utility.yul\":4178:4245   */\n      tag_93\n        /* \"#utility.yul\":4242:4244   */\n      0x26\n        /* \"#utility.yul\":4237:4240   */\n      dup4\n        /* \"#utility.yul\":4178:4245   */\n      tag_46\n      jump\t// in\n    tag_93:\n        /* \"#utility.yul\":4171:4245   */\n      swap2\n      pop\n        /* \"#utility.yul\":4254:4347   */\n      tag_94\n        /* \"#utility.yul\":4343:4346   */\n      dup3\n        /* \"#utility.yul\":4254:4347   */\n      tag_50\n      jump\t// in\n    tag_94:\n        /* \"#utility.yul\":4372:4374   */\n      0x40\n        /* \"#utility.yul\":4367:4370   */\n      dup3\n        /* \"#utility.yul\":4363:4375   */\n      add\n        /* \"#utility.yul\":4356:4375   */\n      swap1\n      pop\n        /* \"#utility.yul\":4015:4381   */\n      swap2\n      swap1\n      pop\n      jump\t// out\n        /* \"#utility.yul\":4387:4806   */\n    tag_36:\n        /* \"#utility.yul\":4553:4557   */\n      0x00\n        /* \"#utility.yul\":4591:4593   */\n      0x20\n        /* \"#utility.yul\":4580:4589   */\n      dup3\n        /* \"#utility.yul\":4576:4594   */\n      add\n        /* \"#utility.yul\":4568:4594   */\n      swap1\n      pop\n        /* \"#utility.yul\":4640:4649   */\n      dup2\n        /* \"#utility.yul\":4634:4638   */\n      dup2\n        /* \"#utility.yul\":4630:4650   */\n      sub\n        /* \"#utility.yul\":4626:4627   */\n      0x00\n        /* \"#utility.yul\":4615:4624   */\n      dup4\n        /* \"#utility.yul\":4611:4628   */\n      add\n        /* \"#utility.yul\":4604:4651   */\n      mstore\n        /* \"#utility.yul\":4668:4799   */\n      tag_96\n        /* \"#utility.yul\":4794:4798   */\n      dup2\n        /* \"#utility.yul\":4668:4799   */\n      tag_51\n      jump\t// in\n    tag_96:\n        /* \"#utility.yul\":4660:4799   */\n      swap1\n      pop\n        /* \"#utility.yul\":4387:4806   */\n      swap2\n      swap1\n      pop\n      jump\t// out\n\n    auxdata: 0xa2646970667358221220451233b0f63df217cae39df59433dd974758a528924681a843ef7355bf00b12964736f6c634300080d0033\n}\n",
				"bytecode": {
					"linkReferences": {},
					"object": "608060405234801561001057600080fd5b506104e2806100206000396000f3fe608060405234801561001057600080fd5b50600436106100415760003560e01c8063771602f714610046578063b8b1b33814610076578063f88e9fbf146100a6575b600080fd5b610060600480360381019061005b91906101f9565b6100d6565b60405161006d9190610248565b60405180910390f35b610090600480360381019061008b91906101f9565b61010e565b60405161009d9190610248565b60405180910390f35b6100c060048036038101906100bb91906101f9565b610166565b6040516100cd9190610248565b60405180910390f35b60008082846100e59190610292565b90508381101580156100f75750828110155b610104576101036102e8565b5b8091505092915050565b6000808203610152576040517f08c379a00000000000000000000000000000000000000000000000000000000081526004016101499061039a565b60405180910390fd5b818361015e91906103e9565b905092915050565b60008082036101aa576040517f08c379a00000000000000000000000000000000000000000000000000000000081526004016101a19061048c565b60405180910390fd5b81836101b691906103e9565b905092915050565b600080fd5b6000819050919050565b6101d6816101c3565b81146101e157600080fd5b50565b6000813590506101f3816101cd565b92915050565b600080604083850312156102105761020f6101be565b5b600061021e858286016101e4565b925050602061022f858286016101e4565b9150509250929050565b610242816101c3565b82525050565b600060208201905061025d6000830184610239565b92915050565b7f4e487b7100000000000000000000000000000000000000000000000000000000600052601160045260246000fd5b600061029d826101c3565b91506102a8836101c3565b9250827fffffffffffffffffffffffffffffffffffffffffffffffffffffffffffffffff038211156102dd576102dc610263565b5b828201905092915050565b7f4e487b7100000000000000000000000000000000000000000000000000000000600052600160045260246000fd5b600082825260208201905092915050565b7f43616e6e6f7420646976696465206279207a65726f206173207265766572742060008201527f7361796573000000000000000000000000000000000000000000000000000000602082015250565b6000610384602583610317565b915061038f82610328565b604082019050919050565b600060208201905081810360008301526103b381610377565b9050919050565b7f4e487b7100000000000000000000000000000000000000000000000000000000600052601260045260246000fd5b60006103f4826101c3565b91506103ff836101c3565b92508261040f5761040e6103ba565b5b828204905092915050565b7f43616e6e6f7420646976696465206279207a65726f206173207265717569726560008201527f2073617965730000000000000000000000000000000000000000000000000000602082015250565b6000610476602683610317565b91506104818261041a565b604082019050919050565b600060208201905081810360008301526104a581610469565b905091905056fea2646970667358221220451233b0f63df217cae39df59433dd974758a528924681a843ef7355bf00b12964736f6c634300080d0033",
					"opcodes": "PUSH1 0x80 PUSH1 0x40 MSTORE CALLVALUE DUP1 ISZERO PUSH2 0x10 JUMPI PUSH1 0x0 DUP1 REVERT JUMPDEST POP PUSH2 0x4E2 DUP1 PUSH2 0x20 PUSH1 0x0 CODECOPY PUSH1 0x0 RETURN INVALID PUSH1 0x80 PUSH1 0x40 MSTORE CALLVALUE DUP1 ISZERO PUSH2 0x10 JUMPI PUSH1 0x0 DUP1 REVERT JUMPDEST POP PUSH1 0x4 CALLDATASIZE LT PUSH2 0x41 JUMPI PUSH1 0x0 CALLDATALOAD PUSH1 0xE0 SHR DUP1 PUSH4 0x771602F7 EQ PUSH2 0x46 JUMPI DUP1 PUSH4 0xB8B1B338 EQ PUSH2 0x76 JUMPI DUP1 PUSH4 0xF88E9FBF EQ PUSH2 0xA6 JUMPI JUMPDEST PUSH1 0x0 DUP1 REVERT JUMPDEST PUSH2 0x60 PUSH1 0x4 DUP1 CALLDATASIZE SUB DUP2 ADD SWAP1 PUSH2 0x5B SWAP2 SWAP1 PUSH2 0x1F9 JUMP JUMPDEST PUSH2 0xD6 JUMP JUMPDEST PUSH1 0x40 MLOAD PUSH2 0x6D SWAP2 SWAP1 PUSH2 0x248 JUMP JUMPDEST PUSH1 0x40 MLOAD DUP1 SWAP2 SUB SWAP1 RETURN JUMPDEST PUSH2 0x90 PUSH1 0x4 DUP1 CALLDATASIZE SUB DUP2 ADD SWAP1 PUSH2 0x8B SWAP2 SWAP1 PUSH2 0x1F9 JUMP JUMPDEST PUSH2 0x10E JUMP JUMPDEST PUSH1 0x40 MLOAD PUSH2 0x9D SWAP2 SWAP1 PUSH2 0x248 JUMP JUMPDEST PUSH1 0x40 MLOAD DUP1 SWAP2 SUB SWAP1 RETURN JUMPDEST PUSH2 0xC0 PUSH1 0x4 DUP1 CALLDATASIZE SUB DUP2 ADD SWAP1 PUSH2 0xBB SWAP2 SWAP1 PUSH2 0x1F9 JUMP JUMPDEST PUSH2 0x166 JUMP JUMPDEST PUSH1 0x40 MLOAD PUSH2 0xCD SWAP2 SWAP1 PUSH2 0x248 JUMP JUMPDEST PUSH1 0x40 MLOAD DUP1 SWAP2 SUB SWAP1 RETURN JUMPDEST PUSH1 0x0 DUP1 DUP3 DUP5 PUSH2 0xE5 SWAP2 SWAP1 PUSH2 0x292 JUMP JUMPDEST SWAP1 POP DUP4 DUP2 LT ISZERO DUP1 ISZERO PUSH2 0xF7 JUMPI POP DUP3 DUP2 LT ISZERO JUMPDEST PUSH2 0x104 JUMPI PUSH2 0x103 PUSH2 0x2E8 JUMP JUMPDEST JUMPDEST DUP1 SWAP2 POP POP SWAP3 SWAP2 POP POP JUMP JUMPDEST PUSH1 0x0 DUP1 DUP3 SUB PUSH2 0x152 JUMPI PUSH1 0x40 MLOAD PUSH32 0x8C379A000000000000000000000000000000000000000000000000000000000 DUP2 MSTORE PUSH1 0x4 ADD PUSH2 0x149 SWAP1 PUSH2 0x39A JUMP JUMPDEST PUSH1 0x40 MLOAD DUP1 SWAP2 SUB SWAP1 REVERT JUMPDEST DUP2 DUP4 PUSH2 0x15E SWAP2 SWAP1 PUSH2 0x3E9 JUMP JUMPDEST SWAP1 POP SWAP3 SWAP2 POP POP JUMP JUMPDEST PUSH1 0x0 DUP1 DUP3 SUB PUSH2 0x1AA JUMPI PUSH1 0x40 MLOAD PUSH32 0x8C379A000000000000000000000000000000000000000000000000000000000 DUP2 MSTORE PUSH1 0x4 ADD PUSH2 0x1A1 SWAP1 PUSH2 0x48C JUMP JUMPDEST PUSH1 0x40 MLOAD DUP1 SWAP2 SUB SWAP1 REVERT JUMPDEST DUP2 DUP4 PUSH2 0x1B6 SWAP2 SWAP1 PUSH2 0x3E9 JUMP JUMPDEST SWAP1 POP SWAP3 SWAP2 POP POP JUMP JUMPDEST PUSH1 0x0 DUP1 REVERT JUMPDEST PUSH1 0x0 DUP2 SWAP1 POP SWAP2 SWAP1 POP JUMP JUMPDEST PUSH2 0x1D6 DUP2 PUSH2 0x1C3 JUMP JUMPDEST DUP2 EQ PUSH2 0x1E1 JUMPI PUSH1 0x0 DUP1 REVERT JUMPDEST POP JUMP JUMPDEST PUSH1 0x0 DUP2 CALLDATALOAD SWAP1 POP PUSH2 0x1F3 DUP2 PUSH2 0x1CD JUMP JUMPDEST SWAP3 SWAP2 POP POP JUMP JUMPDEST PUSH1 0x0 DUP1 PUSH1 0x40 DUP4 DUP6 SUB SLT ISZERO PUSH2 0x210 JUMPI PUSH2 0x20F PUSH2 0x1BE JUMP JUMPDEST JUMPDEST PUSH1 0x0 PUSH2 0x21E DUP6 DUP3 DUP7 ADD PUSH2 0x1E4 JUMP JUMPDEST SWAP3 POP POP PUSH1 0x20 PUSH2 0x22F DUP6 DUP3 DUP7 ADD PUSH2 0x1E4 JUMP JUMPDEST SWAP2 POP POP SWAP3 POP SWAP3 SWAP1 POP JUMP JUMPDEST PUSH2 0x242 DUP2 PUSH2 0x1C3 JUMP JUMPDEST DUP3 MSTORE POP POP JUMP JUMPDEST PUSH1 0x0 PUSH1 0x20 DUP3 ADD SWAP1 POP PUSH2 0x25D PUSH1 0x0 DUP4 ADD DUP5 PUSH2 0x239 JUMP JUMPDEST SWAP3 SWAP2 POP POP JUMP JUMPDEST PUSH32 0x4E487B7100000000000000000000000000000000000000000000000000000000 PUSH1 0x0 MSTORE PUSH1 0x11 PUSH1 0x4 MSTORE PUSH1 0x24 PUSH1 0x0 REVERT JUMPDEST PUSH1 0x0 PUSH2 0x29D DUP3 PUSH2 0x1C3 JUMP JUMPDEST SWAP2 POP PUSH2 0x2A8 DUP4 PUSH2 0x1C3 JUMP JUMPDEST SWAP3 POP DUP3 PUSH32 0xFFFFFFFFFFFFFFFFFFFFFFFFFFFFFFFFFFFFFFFFFFFFFFFFFFFFFFFFFFFFFFFF SUB DUP3 GT ISZERO PUSH2 0x2DD JUMPI PUSH2 0x2DC PUSH2 0x263 JUMP JUMPDEST JUMPDEST DUP3 DUP3 ADD SWAP1 POP SWAP3 SWAP2 POP POP JUMP JUMPDEST PUSH32 0x4E487B7100000000000000000000000000000000000000000000000000000000 PUSH1 0x0 MSTORE PUSH1 0x1 PUSH1 0x4 MSTORE PUSH1 0x24 PUSH1 0x0 REVERT JUMPDEST PUSH1 0x0 DUP3 DUP3 MSTORE PUSH1 0x20 DUP3 ADD SWAP1 POP SWAP3 SWAP2 POP POP JUMP JUMPDEST PUSH32 0x43616E6E6F7420646976696465206279207A65726F2061732072657665727420 PUSH1 0x0 DUP3 ADD MSTORE PUSH32 0x7361796573000000000000000000000000000000000000000000000000000000 PUSH1 0x20 DUP3 ADD MSTORE POP JUMP JUMPDEST PUSH1 0x0 PUSH2 0x384 PUSH1 0x25 DUP4 PUSH2 0x317 JUMP JUMPDEST SWAP2 POP PUSH2 0x38F DUP3 PUSH2 0x328 JUMP JUMPDEST PUSH1 0x40 DUP3 ADD SWAP1 POP SWAP2 SWAP1 POP JUMP JUMPDEST PUSH1 0x0 PUSH1 0x20 DUP3 ADD SWAP1 POP DUP2 DUP2 SUB PUSH1 0x0 DUP4 ADD MSTORE PUSH2 0x3B3 DUP2 PUSH2 0x377 JUMP JUMPDEST SWAP1 POP SWAP2 SWAP1 POP JUMP JUMPDEST PUSH32 0x4E487B7100000000000000000000000000000000000000000000000000000000 PUSH1 0x0 MSTORE PUSH1 0x12 PUSH1 0x4 MSTORE PUSH1 0x24 PUSH1 0x0 REVERT JUMPDEST PUSH1 0x0 PUSH2 0x3F4 DUP3 PUSH2 0x1C3 JUMP JUMPDEST SWAP2 POP PUSH2 0x3FF DUP4 PUSH2 0x1C3 JUMP JUMPDEST SWAP3 POP DUP3 PUSH2 0x40F JUMPI PUSH2 0x40E PUSH2 0x3BA JUMP JUMPDEST JUMPDEST DUP3 DUP3 DIV SWAP1 POP SWAP3 SWAP2 POP POP JUMP JUMPDEST PUSH32 0x43616E6E6F7420646976696465206279207A65726F2061732072657175697265 PUSH1 0x0 DUP3 ADD MSTORE PUSH32 0x2073617965730000000000000000000000000000000000000000000000000000 PUSH1 0x20 DUP3 ADD MSTORE POP JUMP JUMPDEST PUSH1 0x0 PUSH2 0x476 PUSH1 0x26 DUP4 PUSH2 0x317 JUMP JUMPDEST SWAP2 POP PUSH2 0x481 DUP3 PUSH2 0x41A JUMP JUMPDEST PUSH1 0x40 DUP3 ADD SWAP1 POP SWAP2 SWAP1 POP JUMP JUMPDEST PUSH1 0x0 PUSH1 0x20 DUP3 ADD SWAP1 POP DUP2 DUP2 SUB PUSH1 0x0 DUP4 ADD MSTORE PUSH2 0x4A5 DUP2 PUSH2 0x469 JUMP JUMPDEST SWAP1 POP SWAP2 SWAP1 POP JUMP INVALID LOG2 PUSH5 0x6970667358 0x22 SLT KECCAK256 GASLIMIT SLT CALLER 0xB0 0xF6 RETURNDATASIZE CALLCODE OR 0xCA 0xE3 SWAP14 CREATE2 SWAP5 CALLER 0xDD SWAP8 SELFBALANCE PC 0xA5 0x28 SWAP3 CHAINID DUP2 0xA8 NUMBER 0xEF PUSH20 0x55BF00B12964736F6C634300080D003300000000 "
				},
				"gasEstimates": {
					"creation": {
						"codeDepositCost": "250000",
						"executionCost": "294",
						"totalCost": "250294"
					},
					"external": {
						"add(uint256,uint256)": "infinite",
						"divide(uint256,uint256)": "infinite",
						"fail(uint256,uint256)": "infinite"
					}
				},
				"methodIdentifiers": {
					"add(uint256,uint256)": "771602f7",
					"divide(uint256,uint256)": "f88e9fbf",
					"fail(uint256,uint256)": "b8b1b338"
				}
			},
			"storageLayout": {
				"storage": [],
				"types": null
			},
			"userdoc": {
				"kind": "user",
				"methods": {},
				"version": 1
			}
		}
	}
}