{
	"contracts/error_handling.sol": {
		"ExampleContract": {
			"abi": [
				{
					"inputs": [
						{
							"internalType": "uint256",
							"name": "a",
							"type": "uint256"
						},
						{
							"internalType": "uint256",
							"name": "b",
							"type": "uint256"
						}
					],
					"name": "add",
					"outputs": [
						{
							"internalType": "uint256",
							"name": "",
							"type": "uint256"
						}
					],
					"stateMutability": "pure",
					"type": "function"
				},
				{
					"inputs": [
						{
							"internalType": "uint256",
							"name": "a",
							"type": "uint256"
						},
						{
							"internalType": "uint256",
							"name": "b",
							"type": "uint256"
						}
					],
					"name": "divide",
					"outputs": [
						{
							"internalType": "uint256",
							"name": "",
							"type": "uint256"
						}
					],
					"stateMutability": "pure",
					"type": "function"
				},
				{
					"inputs": [],
					"name": "fail",
					"outputs": [],
					"stateMutability": "pure",
					"type": "function"
				},
				{
					"inputs": [],
					"name": "getValue",
					"outputs": [
						{
							"internalType": "uint256",
							"name": "",
							"type": "uint256"
						}
					],
					"stateMutability": "view",
					"type": "function"
				},
				{
					"inputs": [
						{
							"internalType": "uint256",
							"name": "newValue",
							"type": "uint256"
						}
					],
					"name": "setValue",
					"outputs": [],
					"stateMutability": "nonpayable",
					"type": "function"
				},
				{
					"inputs": [],
					"name": "value",
					"outputs": [
						{
							"internalType": "uint256",
							"name": "",
							"type": "uint256"
						}
					],
					"stateMutability": "view",
					"type": "function"
				}
			],
			"devdoc": {
				"kind": "dev",
				"methods": {},
				"version": 1
			},
			"evm": {
				"assembly": "    /* \"contracts/error_handling.sol\":64:791  contract ExampleContract {... */\n  mstore(0x40, 0x80)\n  callvalue\n  dup1\n  iszero\n  tag_1\n  jumpi\n  0x00\n  dup1\n  revert\ntag_1:\n  pop\n  dataSize(sub_0)\n  dup1\n  dataOffset(sub_0)\n  0x00\n  codecopy\n  0x00\n  return\nstop\n\nsub_0: assembly {\n        /* \"contracts/error_handling.sol\":64:791  contract ExampleContract {... */\n      mstore(0x40, 0x80)\n      callvalue\n      dup1\n      iszero\n      tag_1\n      jumpi\n      0x00\n      dup1\n      revert\n    tag_1:\n      pop\n      jumpi(tag_2, lt(calldatasize, 0x04))\n      shr(0xe0, calldataload(0x00))\n      dup1\n      0x20965255\n      eq\n      tag_3\n      jumpi\n      dup1\n      0x3fa4f245\n      eq\n      tag_4\n      jumpi\n      dup1\n      0x55241077\n      eq\n      tag_5\n      jumpi\n      dup1\n      0x771602f7\n      eq\n      tag_6\n      jumpi\n      dup1\n      0xa9cc4718\n      eq\n      tag_7\n      jumpi\n      dup1\n      0xf88e9fbf\n      eq\n      tag_8\n      jumpi\n    tag_2:\n      0x00\n      dup1\n      revert\n        /* \"contracts/error_handling.sol\":295:376  function getValue() public view returns (uint256) {... */\n    tag_3:\n      tag_9\n      tag_10\n      jump\t// in\n    tag_9:\n      mload(0x40)\n      tag_11\n      swap2\n      swap1\n      tag_12\n      jump\t// in\n    tag_11:\n      mload(0x40)\n      dup1\n      swap2\n      sub\n      swap1\n      return\n        /* \"contracts/error_handling.sol\":96:116  uint256 public value */\n    tag_4:\n      tag_13\n      tag_14\n      jump\t// in\n    tag_13:\n      mload(0x40)\n      tag_15\n      swap2\n      swap1\n      tag_12\n      jump\t// in\n    tag_15:\n      mload(0x40)\n      dup1\n      swap2\n      sub\n      swap1\n      return\n        /* \"contracts/error_handling.sol\":125:287  function setValue(uint256 newValue) public {... */\n    tag_5:\n      tag_16\n      0x04\n      dup1\n      calldatasize\n      sub\n      dup2\n      add\n      swap1\n      tag_17\n      swap2\n      swap1\n      tag_18\n      jump\t// in\n    tag_17:\n      tag_19\n      jump\t// in\n    tag_16:\n      stop\n        /* \"contracts/error_handling.sol\":384:539  function add(uint256 a, uint256 b) public pure returns (uint256) {... */\n    tag_6:\n      tag_20\n      0x04\n      dup1\n      calldatasize\n      sub\n      dup2\n      add\n      swap1\n      tag_21\n      swap2\n      swap1\n      tag_22\n      jump\t// in\n    tag_21:\n      tag_23\n      jump\t// in\n    tag_20:\n      mload(0x40)\n      tag_24\n      swap2\n      swap1\n      tag_12\n      jump\t// in\n    tag_24:\n      mload(0x40)\n      dup1\n      swap2\n      sub\n      swap1\n      return\n        /* \"contracts/error_handling.sol\":705:788  function fail() public pure {... */\n    tag_7:\n      tag_25\n      tag_26\n      jump\t// in\n    tag_25:\n      stop\n        /* \"contracts/error_handling.sol\":547:697  function divide(uint256 a, uint256 b) public pure returns (uint256) {... */\n    tag_8:\n      tag_27\n      0x04\n      dup1\n      calldatasize\n      sub\n      dup2\n      add\n      swap1\n      tag_28\n      swap2\n      swap1\n      tag_22\n      jump\t// in\n    tag_28:\n      tag_29\n      jump\t// in\n    tag_27:\n      mload(0x40)\n      tag_30\n      swap2\n      swap1\n      tag_12\n      jump\t// in\n    tag_30:\n      mload(0x40)\n      dup1\n      swap2\n      sub\n      swap1\n      return\n        /* \"contracts/error_handling.sol\":295:376  function getValue() public view returns (uint256) {... */\n    tag_10:\n        /* \"contracts/error_handling.sol\":336:343  uint256 */\n      0x00\n        /* \"contracts/error_handling.sol\":363:368  value */\n      dup1\n      sload\n        /* \"contracts/error_handling.sol\":356:368  return value */\n      swap1\n      pop\n        /* \"contracts/error_handling.sol\":295:376  function getValue() public view returns (uint256) {... */\n      swap1\n      jump\t// out\n        /* \"contracts/error_handling.sol\":96:116  uint256 public value */\n    tag_14:\n      sload(0x00)\n      dup2\n      jump\t// out\n        /* \"contracts/error_handling.sol\":125:287  function setValue(uint256 newValue) public {... */\n    tag_19:\n        /* \"contracts/error_handling.sol\":198:203  value */\n      sload(0x00)\n        /* \"contracts/error_handling.sol\":187:195  newValue */\n      dup2\n        /* \"contracts/error_handling.sol\":187:203  newValue > value */\n      gt\n        /* \"contracts/error_handling.sol\":179:252  require(newValue > value, \"New value must be greater than current value\") */\n      tag_33\n      jumpi\n      mload(0x40)\n      0x08c379a000000000000000000000000000000000000000000000000000000000\n      dup2\n      mstore\n      0x04\n      add\n      tag_34\n      swap1\n      tag_35\n      jump\t// in\n    tag_34:\n      mload(0x40)\n      dup1\n      swap2\n      sub\n      swap1\n      revert\n    tag_33:\n        /* \"contracts/error_handling.sol\":271:279  newValue */\n      dup1\n        /* \"contracts/error_handling.sol\":263:268  value */\n      0x00\n        /* \"contracts/error_handling.sol\":263:279  value = newValue */\n      dup2\n      swap1\n      sstore\n      pop\n        /* \"contracts/error_handling.sol\":125:287  function setValue(uint256 newValue) public {... */\n      pop\n      jump\t// out\n        /* \"contracts/error_handling.sol\":384:539  function add(uint256 a, uint256 b) public pure returns (uint256) {... */\n    tag_23:\n        /* \"contracts/error_handling.sol\":440:447  uint256 */\n      0x00\n        /* \"contracts/error_handling.sol\":460:469  uint256 c */\n      dup1\n        /* \"contracts/error_handling.sol\":476:477  b */\n      dup3\n        /* \"contracts/error_handling.sol\":472:473  a */\n      dup5\n        /* \"contracts/error_handling.sol\":472:477  a + b */\n      tag_37\n      swap2\n      swap1\n      tag_38\n      jump\t// in\n    tag_37:\n        /* \"contracts/error_handling.sol\":460:477  uint256 c = a + b */\n      swap1\n      pop\n        /* \"contracts/error_handling.sol\":500:501  a */\n      dup4\n        /* \"contracts/error_handling.sol\":495:496  c */\n      dup2\n        /* \"contracts/error_handling.sol\":495:501  c >= a */\n      lt\n      iszero\n        /* \"contracts/error_handling.sol\":495:511  c >= a && c >= b */\n      dup1\n      iszero\n      tag_39\n      jumpi\n      pop\n        /* \"contracts/error_handling.sol\":510:511  b */\n      dup3\n        /* \"contracts/error_handling.sol\":505:506  c */\n      dup2\n        /* \"contracts/error_handling.sol\":505:511  c >= b */\n      lt\n      iszero\n        /* \"contracts/error_handling.sol\":495:511  c >= a && c >= b */\n    tag_39:\n        /* \"contracts/error_handling.sol\":488:512  assert(c >= a && c >= b) */\n      tag_40\n      jumpi\n      tag_41\n      tag_42\n      jump\t// in\n    tag_41:\n    tag_40:\n        /* \"contracts/error_handling.sol\":530:531  c */\n      dup1\n        /* \"contracts/error_handling.sol\":523:531  return c */\n      swap2\n      pop\n      pop\n        /* \"contracts/error_handling.sol\":384:539  function add(uint256 a, uint256 b) public pure returns (uint256) {... */\n      swap3\n      swap2\n      pop\n      pop\n      jump\t// out\n        /* \"contracts/error_handling.sol\":705:788  function fail() public pure {... */\n    tag_26:\n        /* \"contracts/error_handling.sol\":744:780  revert(\"This function always fails\") */\n      mload(0x40)\n      0x08c379a000000000000000000000000000000000000000000000000000000000\n      dup2\n      mstore\n      0x04\n      add\n      tag_44\n      swap1\n      tag_45\n      jump\t// in\n    tag_44:\n      mload(0x40)\n      dup1\n      swap2\n      sub\n      swap1\n      revert\n        /* \"contracts/error_handling.sol\":547:697  function divide(uint256 a, uint256 b) public pure returns (uint256) {... */\n    tag_29:\n        /* \"contracts/error_handling.sol\":606:613  uint256 */\n      0x00\n        /* \"contracts/error_handling.sol\":639:640  0 */\n      dup1\n        /* \"contracts/error_handling.sol\":634:635  b */\n      dup3\n        /* \"contracts/error_handling.sol\":634:640  b != 0 */\n      sub\n        /* \"contracts/error_handling.sol\":626:666  require(b != 0, \"Cannot divide by zero\") */\n      tag_47\n      jumpi\n      mload(0x40)\n      0x08c379a000000000000000000000000000000000000000000000000000000000\n      dup2\n      mstore\n      0x04\n      add\n      tag_48\n      swap1\n      tag_49\n      jump\t// in\n    tag_48:\n      mload(0x40)\n      dup1\n      swap2\n      sub\n      swap1\n      revert\n    tag_47:\n        /* \"contracts/error_handling.sol\":688:689  b */\n      dup2\n        /* \"contracts/error_handling.sol\":684:685  a */\n      dup4\n        /* \"contracts/error_handling.sol\":684:689  a / b */\n      tag_50\n      swap2\n      swap1\n      tag_51\n      jump\t// in\n    tag_50:\n        /* \"contracts/error_handling.sol\":677:689  return a / b */\n      swap1\n      pop\n        /* \"contracts/error_handling.sol\":547:697  function divide(uint256 a, uint256 b) public pure returns (uint256) {... */\n      swap3\n      swap2\n      pop\n      pop\n      jump\t// out\n        /* \"#utility.yul\":7:84   */\n    tag_52:\n        /* \"#utility.yul\":44:51   */\n      0x00\n        /* \"#utility.yul\":73:78   */\n      dup2\n        /* \"#utility.yul\":62:78   */\n      swap1\n      pop\n        /* \"#utility.yul\":7:84   */\n      swap2\n      swap1\n      pop\n      jump\t// out\n        /* \"#utility.yul\":90:208   */\n    tag_53:\n        /* \"#utility.yul\":177:201   */\n      tag_71\n        /* \"#utility.yul\":195:200   */\n      dup2\n        /* \"#utility.yul\":177:201   */\n      tag_52\n      jump\t// in\n    tag_71:\n        /* \"#utility.yul\":172:175   */\n      dup3\n        /* \"#utility.yul\":165:202   */\n      mstore\n        /* \"#utility.yul\":90:208   */\n      pop\n      pop\n      jump\t// out\n        /* \"#utility.yul\":214:436   */\n    tag_12:\n        /* \"#utility.yul\":307:311   */\n      0x00\n        /* \"#utility.yul\":345:347   */\n      0x20\n        /* \"#utility.yul\":334:343   */\n      dup3\n        /* \"#utility.yul\":330:348   */\n      add\n        /* \"#utility.yul\":322:348   */\n      swap1\n      pop\n        /* \"#utility.yul\":358:429   */\n      tag_73\n        /* \"#utility.yul\":426:427   */\n      0x00\n        /* \"#utility.yul\":415:424   */\n      dup4\n        /* \"#utility.yul\":411:428   */\n      add\n        /* \"#utility.yul\":402:408   */\n      dup5\n        /* \"#utility.yul\":358:429   */\n      tag_53\n      jump\t// in\n    tag_73:\n        /* \"#utility.yul\":214:436   */\n      swap3\n      swap2\n      pop\n      pop\n      jump\t// out\n        /* \"#utility.yul\":523:640   */\n    tag_55:\n        /* \"#utility.yul\":632:633   */\n      0x00\n        /* \"#utility.yul\":629:630   */\n      dup1\n        /* \"#utility.yul\":622:634   */\n      revert\n        /* \"#utility.yul\":769:891   */\n    tag_57:\n        /* \"#utility.yul\":842:866   */\n      tag_78\n        /* \"#utility.yul\":860:865   */\n      dup2\n        /* \"#utility.yul\":842:866   */\n      tag_52\n      jump\t// in\n    tag_78:\n        /* \"#utility.yul\":835:840   */\n      dup2\n        /* \"#utility.yul\":832:867   */\n      eq\n        /* \"#utility.yul\":822:885   */\n      tag_79\n      jumpi\n        /* \"#utility.yul\":881:882   */\n      0x00\n        /* \"#utility.yul\":878:879   */\n      dup1\n        /* \"#utility.yul\":871:883   */\n      revert\n        /* \"#utility.yul\":822:885   */\n    tag_79:\n        /* \"#utility.yul\":769:891   */\n      pop\n      jump\t// out\n        /* \"#utility.yul\":897:1036   */\n    tag_58:\n        /* \"#utility.yul\":943:948   */\n      0x00\n        /* \"#utility.yul\":981:987   */\n      dup2\n        /* \"#utility.yul\":968:988   */\n      calldataload\n        /* \"#utility.yul\":959:988   */\n      swap1\n      pop\n        /* \"#utility.yul\":997:1030   */\n      tag_81\n        /* \"#utility.yul\":1024:1029   */\n      dup2\n        /* \"#utility.yul\":997:1030   */\n      tag_57\n      jump\t// in\n    tag_81:\n        /* \"#utility.yul\":897:1036   */\n      swap3\n      swap2\n      pop\n      pop\n      jump\t// out\n        /* \"#utility.yul\":1042:1371   */\n    tag_18:\n        /* \"#utility.yul\":1101:1107   */\n      0x00\n        /* \"#utility.yul\":1150:1152   */\n      0x20\n        /* \"#utility.yul\":1138:1147   */\n      dup3\n        /* \"#utility.yul\":1129:1136   */\n      dup5\n        /* \"#utility.yul\":1125:1148   */\n      sub\n        /* \"#utility.yul\":1121:1153   */\n      slt\n        /* \"#utility.yul\":1118:1237   */\n      iszero\n      tag_83\n      jumpi\n        /* \"#utility.yul\":1156:1235   */\n      tag_84\n      tag_55\n      jump\t// in\n    tag_84:\n        /* \"#utility.yul\":1118:1237   */\n    tag_83:\n        /* \"#utility.yul\":1276:1277   */\n      0x00\n        /* \"#utility.yul\":1301:1354   */\n      tag_85\n        /* \"#utility.yul\":1346:1353   */\n      dup5\n        /* \"#utility.yul\":1337:1343   */\n      dup3\n        /* \"#utility.yul\":1326:1335   */\n      dup6\n        /* \"#utility.yul\":1322:1344   */\n      add\n        /* \"#utility.yul\":1301:1354   */\n      tag_58\n      jump\t// in\n    tag_85:\n        /* \"#utility.yul\":1291:1354   */\n      swap2\n      pop\n        /* \"#utility.yul\":1247:1364   */\n      pop\n        /* \"#utility.yul\":1042:1371   */\n      swap3\n      swap2\n      pop\n      pop\n      jump\t// out\n        /* \"#utility.yul\":1377:1851   */\n    tag_22:\n        /* \"#utility.yul\":1445:1451   */\n      0x00\n        /* \"#utility.yul\":1453:1459   */\n      dup1\n        /* \"#utility.yul\":1502:1504   */\n      0x40\n        /* \"#utility.yul\":1490:1499   */\n      dup4\n        /* \"#utility.yul\":1481:1488   */\n      dup6\n        /* \"#utility.yul\":1477:1500   */\n      sub\n        /* \"#utility.yul\":1473:1505   */\n      slt\n        /* \"#utility.yul\":1470:1589   */\n      iszero\n      tag_87\n      jumpi\n        /* \"#utility.yul\":1508:1587   */\n      tag_88\n      tag_55\n      jump\t// in\n    tag_88:\n        /* \"#utility.yul\":1470:1589   */\n    tag_87:\n        /* \"#utility.yul\":1628:1629   */\n      0x00\n        /* \"#utility.yul\":1653:1706   */\n      tag_89\n        /* \"#utility.yul\":1698:1705   */\n      dup6\n        /* \"#utility.yul\":1689:1695   */\n      dup3\n        /* \"#utility.yul\":1678:1687   */\n      dup7\n        /* \"#utility.yul\":1674:1696   */\n      add\n        /* \"#utility.yul\":1653:1706   */\n      tag_58\n      jump\t// in\n    tag_89:\n        /* \"#utility.yul\":1643:1706   */\n      swap3\n      pop\n        /* \"#utility.yul\":1599:1716   */\n      pop\n        /* \"#utility.yul\":1755:1757   */\n      0x20\n        /* \"#utility.yul\":1781:1834   */\n      tag_90\n        /* \"#utility.yul\":1826:1833   */\n      dup6\n        /* \"#utility.yul\":1817:1823   */\n      dup3\n        /* \"#utility.yul\":1806:1815   */\n      dup7\n        /* \"#utility.yul\":1802:1824   */\n      add\n        /* \"#utility.yul\":1781:1834   */\n      tag_58\n      jump\t// in\n    tag_90:\n        /* \"#utility.yul\":1771:1834   */\n      swap2\n      pop\n        /* \"#utility.yul\":1726:1844   */\n      pop\n        /* \"#utility.yul\":1377:1851   */\n      swap3\n      pop\n      swap3\n      swap1\n      pop\n      jump\t// out\n        /* \"#utility.yul\":1857:2026   */\n    tag_59:\n        /* \"#utility.yul\":1941:1952   */\n      0x00\n        /* \"#utility.yul\":1975:1981   */\n      dup3\n        /* \"#utility.yul\":1970:1973   */\n      dup3\n        /* \"#utility.yul\":1963:1982   */\n      mstore\n        /* \"#utility.yul\":2015:2019   */\n      0x20\n        /* \"#utility.yul\":2010:2013   */\n      dup3\n        /* \"#utility.yul\":2006:2020   */\n      add\n        /* \"#utility.yul\":1991:2020   */\n      swap1\n      pop\n        /* \"#utility.yul\":1857:2026   */\n      swap3\n      swap2\n      pop\n      pop\n      jump\t// out\n        /* \"#utility.yul\":2032:2263   */\n    tag_60:\n        /* \"#utility.yul\":2172:2206   */\n      0x4e65772076616c7565206d7573742062652067726561746572207468616e2063\n        /* \"#utility.yul\":2168:2169   */\n      0x00\n        /* \"#utility.yul\":2160:2166   */\n      dup3\n        /* \"#utility.yul\":2156:2170   */\n      add\n        /* \"#utility.yul\":2149:2207   */\n      mstore\n        /* \"#utility.yul\":2241:2255   */\n      0x757272656e742076616c75650000000000000000000000000000000000000000\n        /* \"#utility.yul\":2236:2238   */\n      0x20\n        /* \"#utility.yul\":2228:2234   */\n      dup3\n        /* \"#utility.yul\":2224:2239   */\n      add\n        /* \"#utility.yul\":2217:2256   */\n      mstore\n        /* \"#utility.yul\":2032:2263   */\n      pop\n      jump\t// out\n        /* \"#utility.yul\":2269:2635   */\n    tag_61:\n        /* \"#utility.yul\":2411:2414   */\n      0x00\n        /* \"#utility.yul\":2432:2499   */\n      tag_94\n        /* \"#utility.yul\":2496:2498   */\n      0x2c\n        /* \"#utility.yul\":2491:2494   */\n      dup4\n        /* \"#utility.yul\":2432:2499   */\n      tag_59\n      jump\t// in\n    tag_94:\n        /* \"#utility.yul\":2425:2499   */\n      swap2\n      pop\n        /* \"#utility.yul\":2508:2601   */\n      tag_95\n        /* \"#utility.yul\":2597:2600   */\n      dup3\n        /* \"#utility.yul\":2508:2601   */\n      tag_60\n      jump\t// in\n    tag_95:\n        /* \"#utility.yul\":2626:2628   */\n      0x40\n        /* \"#utility.yul\":2621:2624   */\n      dup3\n        /* \"#utility.yul\":2617:2629   */\n      add\n        /* \"#utility.yul\":2610:2629   */\n      swap1\n      pop\n        /* \"#utility.yul\":2269:2635   */\n      swap2\n      swap1\n      pop\n      jump\t// out\n        /* \"#utility.yul\":2641:3060   */\n    tag_35:\n        /* \"#utility.yul\":2807:2811   */\n      0x00\n        /* \"#utility.yul\":2845:2847   */\n      0x20\n        /* \"#utility.yul\":2834:2843   */\n      dup3\n        /* \"#utility.yul\":2830:2848   */\n      add\n        /* \"#utility.yul\":2822:2848   */\n      swap1\n      pop\n        /* \"#utility.yul\":2894:2903   */\n      dup2\n        /* \"#utility.yul\":2888:2892   */\n      dup2\n        /* \"#utility.yul\":2884:2904   */\n      sub\n        /* \"#utility.yul\":2880:2881   */\n      0x00\n        /* \"#utility.yul\":2869:2878   */\n      dup4\n        /* \"#utility.yul\":2865:2882   */\n      add\n        /* \"#utility.yul\":2858:2905   */\n      mstore\n        /* \"#utility.yul\":2922:3053   */\n      tag_97\n        /* \"#utility.yul\":3048:3052   */\n      dup2\n        /* \"#utility.yul\":2922:3053   */\n      tag_61\n      jump\t// in\n    tag_97:\n        /* \"#utility.yul\":2914:3053   */\n      swap1\n      pop\n        /* \"#utility.yul\":2641:3060   */\n      swap2\n      swap1\n      pop\n      jump\t// out\n        /* \"#utility.yul\":3066:3246   */\n    tag_62:\n        /* \"#utility.yul\":3114:3191   */\n      0x4e487b7100000000000000000000000000000000000000000000000000000000\n        /* \"#utility.yul\":3111:3112   */\n      0x00\n        /* \"#utility.yul\":3104:3192   */\n      mstore\n        /* \"#utility.yul\":3211:3215   */\n      0x11\n        /* \"#utility.yul\":3208:3209   */\n      0x04\n        /* \"#utility.yul\":3201:3216   */\n      mstore\n        /* \"#utility.yul\":3235:3239   */\n      0x24\n        /* \"#utility.yul\":3232:3233   */\n      0x00\n        /* \"#utility.yul\":3225:3240   */\n      revert\n        /* \"#utility.yul\":3252:3443   */\n    tag_38:\n        /* \"#utility.yul\":3292:3295   */\n      0x00\n        /* \"#utility.yul\":3311:3331   */\n      tag_100\n        /* \"#utility.yul\":3329:3330   */\n      dup3\n        /* \"#utility.yul\":3311:3331   */\n      tag_52\n      jump\t// in\n    tag_100:\n        /* \"#utility.yul\":3306:3331   */\n      swap2\n      pop\n        /* \"#utility.yul\":3345:3365   */\n      tag_101\n        /* \"#utility.yul\":3363:3364   */\n      dup4\n        /* \"#utility.yul\":3345:3365   */\n      tag_52\n      jump\t// in\n    tag_101:\n        /* \"#utility.yul\":3340:3365   */\n      swap3\n      pop\n        /* \"#utility.yul\":3388:3389   */\n      dup3\n        /* \"#utility.yul\":3385:3386   */\n      dup3\n        /* \"#utility.yul\":3381:3390   */\n      add\n        /* \"#utility.yul\":3374:3390   */\n      swap1\n      pop\n        /* \"#utility.yul\":3409:3412   */\n      dup1\n        /* \"#utility.yul\":3406:3407   */\n      dup3\n        /* \"#utility.yul\":3403:3413   */\n      gt\n        /* \"#utility.yul\":3400:3436   */\n      iszero\n      tag_102\n      jumpi\n        /* \"#utility.yul\":3416:3434   */\n      tag_103\n      tag_62\n      jump\t// in\n    tag_103:\n        /* \"#utility.yul\":3400:3436   */\n    tag_102:\n        /* \"#utility.yul\":3252:3443   */\n      swap3\n      swap2\n      pop\n      pop\n      jump\t// out\n        /* \"#utility.yul\":3449:3629   */\n    tag_42:\n        /* \"#utility.yul\":3497:3574   */\n      0x4e487b7100000000000000000000000000000000000000000000000000000000\n        /* \"#utility.yul\":3494:3495   */\n      0x00\n        /* \"#utility.yul\":3487:3575   */\n      mstore\n        /* \"#utility.yul\":3594:3598   */\n      0x01\n        /* \"#utility.yul\":3591:3592   */\n      0x04\n        /* \"#utility.yul\":3584:3599   */\n      mstore\n        /* \"#utility.yul\":3618:3622   */\n      0x24\n        /* \"#utility.yul\":3615:3616   */\n      0x00\n        /* \"#utility.yul\":3608:3623   */\n      revert\n        /* \"#utility.yul\":3635:3811   */\n    tag_63:\n        /* \"#utility.yul\":3775:3803   */\n      0x546869732066756e6374696f6e20616c77617973206661696c73000000000000\n        /* \"#utility.yul\":3771:3772   */\n      0x00\n        /* \"#utility.yul\":3763:3769   */\n      dup3\n        /* \"#utility.yul\":3759:3773   */\n      add\n        /* \"#utility.yul\":3752:3804   */\n      mstore\n        /* \"#utility.yul\":3635:3811   */\n      pop\n      jump\t// out\n        /* \"#utility.yul\":3817:4183   */\n    tag_64:\n        /* \"#utility.yul\":3959:3962   */\n      0x00\n        /* \"#utility.yul\":3980:4047   */\n      tag_107\n        /* \"#utility.yul\":4044:4046   */\n      0x1a\n        /* \"#utility.yul\":4039:4042   */\n      dup4\n        /* \"#utility.yul\":3980:4047   */\n      tag_59\n      jump\t// in\n    tag_107:\n        /* \"#utility.yul\":3973:4047   */\n      swap2\n      pop\n        /* \"#utility.yul\":4056:4149   */\n      tag_108\n        /* \"#utility.yul\":4145:4148   */\n      dup3\n        /* \"#utility.yul\":4056:4149   */\n      tag_63\n      jump\t// in\n    tag_108:\n        /* \"#utility.yul\":4174:4176   */\n      0x20\n        /* \"#utility.yul\":4169:4172   */\n      dup3\n        /* \"#utility.yul\":4165:4177   */\n      add\n        /* \"#utility.yul\":4158:4177   */\n      swap1\n      pop\n        /* \"#utility.yul\":3817:4183   */\n      swap2\n      swap1\n      pop\n      jump\t// out\n        /* \"#utility.yul\":4189:4608   */\n    tag_45:\n        /* \"#utility.yul\":4355:4359   */\n      0x00\n        /* \"#utility.yul\":4393:4395   */\n      0x20\n        /* \"#utility.yul\":4382:4391   */\n      dup3\n        /* \"#utility.yul\":4378:4396   */\n      add\n        /* \"#utility.yul\":4370:4396   */\n      swap1\n      pop\n        /* \"#utility.yul\":4442:4451   */\n      dup2\n        /* \"#utility.yul\":4436:4440   */\n      dup2\n        /* \"#utility.yul\":4432:4452   */\n      sub\n        /* \"#utility.yul\":4428:4429   */\n      0x00\n        /* \"#utility.yul\":4417:4426   */\n      dup4\n        /* \"#utility.yul\":4413:4430   */\n      add\n        /* \"#utility.yul\":4406:4453   */\n      mstore\n        /* \"#utility.yul\":4470:4601   */\n      tag_110\n        /* \"#utility.yul\":4596:4600   */\n      dup2\n        /* \"#utility.yul\":4470:4601   */\n      tag_64\n      jump\t// in\n    tag_110:\n        /* \"#utility.yul\":4462:4601   */\n      swap1\n      pop\n        /* \"#utility.yul\":4189:4608   */\n      swap2\n      swap1\n      pop\n      jump\t// out\n        /* \"#utility.yul\":4614:4785   */\n    tag_65:\n        /* \"#utility.yul\":4754:4777   */\n      0x43616e6e6f7420646976696465206279207a65726f0000000000000000000000\n        /* \"#utility.yul\":4750:4751   */\n      0x00\n        /* \"#utility.yul\":4742:4748   */\n      dup3\n        /* \"#utility.yul\":4738:4752   */\n      add\n        /* \"#utility.yul\":4731:4778   */\n      mstore\n        /* \"#utility.yul\":4614:4785   */\n      pop\n      jump\t// out\n        /* \"#utility.yul\":4791:5157   */\n    tag_66:\n        /* \"#utility.yul\":4933:4936   */\n      0x00\n        /* \"#utility.yul\":4954:5021   */\n      tag_113\n        /* \"#utility.yul\":5018:5020   */\n      0x15\n        /* \"#utility.yul\":5013:5016   */\n      dup4\n        /* \"#utility.yul\":4954:5021   */\n      tag_59\n      jump\t// in\n    tag_113:\n        /* \"#utility.yul\":4947:5021   */\n      swap2\n      pop\n        /* \"#utility.yul\":5030:5123   */\n      tag_114\n        /* \"#utility.yul\":5119:5122   */\n      dup3\n        /* \"#utility.yul\":5030:5123   */\n      tag_65\n      jump\t// in\n    tag_114:\n        /* \"#utility.yul\":5148:5150   */\n      0x20\n        /* \"#utility.yul\":5143:5146   */\n      dup3\n        /* \"#utility.yul\":5139:5151   */\n      add\n        /* \"#utility.yul\":5132:5151   */\n      swap1\n      pop\n        /* \"#utility.yul\":4791:5157   */\n      swap2\n      swap1\n      pop\n      jump\t// out\n        /* \"#utility.yul\":5163:5582   */\n    tag_49:\n        /* \"#utility.yul\":5329:5333   */\n      0x00\n        /* \"#utility.yul\":5367:5369   */\n      0x20\n        /* \"#utility.yul\":5356:5365   */\n      dup3\n        /* \"#utility.yul\":5352:5370   */\n      add\n        /* \"#utility.yul\":5344:5370   */\n      swap1\n      pop\n        /* \"#utility.yul\":5416:5425   */\n      dup2\n        /* \"#utility.yul\":5410:5414   */\n      dup2\n        /* \"#utility.yul\":5406:5426   */\n      sub\n        /* \"#utility.yul\":5402:5403   */\n      0x00\n        /* \"#utility.yul\":5391:5400   */\n      dup4\n        /* \"#utility.yul\":5387:5404   */\n      add\n        /* \"#utility.yul\":5380:5427   */\n      mstore\n        /* \"#utility.yul\":5444:5575   */\n      tag_116\n        /* \"#utility.yul\":5570:5574   */\n      dup2\n        /* \"#utility.yul\":5444:5575   */\n      tag_66\n      jump\t// in\n    tag_116:\n        /* \"#utility.yul\":5436:5575   */\n      swap1\n      pop\n        /* \"#utility.yul\":5163:5582   */\n      swap2\n      swap1\n      pop\n      jump\t// out\n        /* \"#utility.yul\":5588:5768   */\n    tag_67:\n        /* \"#utility.yul\":5636:5713   */\n      0x4e487b7100000000000000000000000000000000000000000000000000000000\n        /* \"#utility.yul\":5633:5634   */\n      0x00\n        /* \"#utility.yul\":5626:5714   */\n      mstore\n        /* \"#utility.yul\":5733:5737   */\n      0x12\n        /* \"#utility.yul\":5730:5731   */\n      0x04\n        /* \"#utility.yul\":5723:5738   */\n      mstore\n        /* \"#utility.yul\":5757:5761   */\n      0x24\n        /* \"#utility.yul\":5754:5755   */\n      0x00\n        /* \"#utility.yul\":5747:5762   */\n      revert\n        /* \"#utility.yul\":5774:5959   */\n    tag_51:\n        /* \"#utility.yul\":5814:5815   */\n      0x00\n        /* \"#utility.yul\":5831:5851   */\n      tag_119\n        /* \"#utility.yul\":5849:5850   */\n      dup3\n        /* \"#utility.yul\":5831:5851   */\n      tag_52\n      jump\t// in\n    tag_119:\n        /* \"#utility.yul\":5826:5851   */\n      swap2\n      pop\n        /* \"#utility.yul\":5865:5885   */\n      tag_120\n        /* \"#utility.yul\":5883:5884   */\n      dup4\n        /* \"#utility.yul\":5865:5885   */\n      tag_52\n      jump\t// in\n    tag_120:\n        /* \"#utility.yul\":5860:5885   */\n      swap3\n      pop\n        /* \"#utility.yul\":5904:5905   */\n      dup3\n        /* \"#utility.yul\":5894:5929   */\n      tag_121\n      jumpi\n        /* \"#utility.yul\":5909:5927   */\n      tag_122\n      tag_67\n      jump\t// in\n    tag_122:\n        /* \"#utility.yul\":5894:5929   */\n    tag_121:\n        /* \"#utility.yul\":5951:5952   */\n      dup3\n        /* \"#utility.yul\":5948:5949   */\n      dup3\n        /* \"#utility.yul\":5944:5953   */\n      div\n        /* \"#utility.yul\":5939:5953   */\n      swap1\n      pop\n        /* \"#utility.yul\":5774:5959   */\n      swap3\n      swap2\n      pop\n      pop\n      jump\t// out\n\n    auxdata: 0xa2646970667358221220febe558351118dcb484745b43caf0b04f141839bd7459331456d0f247a3ef70564736f6c63430008130033\n}\n",
				"bytecode": {
					"linkReferences": {},
					"object": "608060405234801561001057600080fd5b506105c6806100206000396000f3fe608060405234801561001057600080fd5b50600436106100625760003560e01c806320965255146100675780633fa4f2451461008557806355241077146100a3578063771602f7146100bf578063a9cc4718146100ef578063f88e9fbf146100f9575b600080fd5b61006f610129565b60405161007c919061026a565b60405180910390f35b61008d610132565b60405161009a919061026a565b60405180910390f35b6100bd60048036038101906100b891906102b6565b610138565b005b6100d960048036038101906100d491906102e3565b610186565b6040516100e6919061026a565b60405180910390f35b6100f76101be565b005b610113600480360381019061010e91906102e3565b6101f9565b604051610120919061026a565b60405180910390f35b60008054905090565b60005481565b600054811161017c576040517f08c379a0000000000000000000000000000000000000000000000000000000008152600401610173906103a6565b60405180910390fd5b8060008190555050565b600080828461019591906103f5565b90508381101580156101a75750828110155b6101b4576101b3610429565b5b8091505092915050565b6040517f08c379a00000000000000000000000000000000000000000000000000000000081526004016101f0906104a4565b60405180910390fd5b600080820361023d576040517f08c379a000000000000000000000000000000000000000000000000000000000815260040161023490610510565b60405180910390fd5b8183610249919061055f565b905092915050565b6000819050919050565b61026481610251565b82525050565b600060208201905061027f600083018461025b565b92915050565b600080fd5b61029381610251565b811461029e57600080fd5b50565b6000813590506102b08161028a565b92915050565b6000602082840312156102cc576102cb610285565b5b60006102da848285016102a1565b91505092915050565b600080604083850312156102fa576102f9610285565b5b6000610308858286016102a1565b9250506020610319858286016102a1565b9150509250929050565b600082825260208201905092915050565b7f4e65772076616c7565206d7573742062652067726561746572207468616e206360008201527f757272656e742076616c75650000000000000000000000000000000000000000602082015250565b6000610390602c83610323565b915061039b82610334565b604082019050919050565b600060208201905081810360008301526103bf81610383565b9050919050565b7f4e487b7100000000000000000000000000000000000000000000000000000000600052601160045260246000fd5b600061040082610251565b915061040b83610251565b9250828201905080821115610423576104226103c6565b5b92915050565b7f4e487b7100000000000000000000000000000000000000000000000000000000600052600160045260246000fd5b7f546869732066756e6374696f6e20616c77617973206661696c73000000000000600082015250565b600061048e601a83610323565b915061049982610458565b602082019050919050565b600060208201905081810360008301526104bd81610481565b9050919050565b7f43616e6e6f7420646976696465206279207a65726f0000000000000000000000600082015250565b60006104fa601583610323565b9150610505826104c4565b602082019050919050565b60006020820190508181036000830152610529816104ed565b9050919050565b7f4e487b7100000000000000000000000000000000000000000000000000000000600052601260045260246000fd5b600061056a82610251565b915061057583610251565b92508261058557610584610530565b5b82820490509291505056fea2646970667358221220febe558351118dcb484745b43caf0b04f141839bd7459331456d0f247a3ef70564736f6c63430008130033",
					"opcodes": "PUSH1 0x80 PUSH1 0x40 MSTORE CALLVALUE DUP1 ISZERO PUSH2 0x10 JUMPI PUSH1 0x0 DUP1 REVERT JUMPDEST POP PUSH2 0x5C6 DUP1 PUSH2 0x20 PUSH1 0x0 CODECOPY PUSH1 0x0 RETURN INVALID PUSH1 0x80 PUSH1 0x40 MSTORE CALLVALUE DUP1 ISZERO PUSH2 0x10 JUMPI PUSH1 0x0 DUP1 REVERT JUMPDEST POP PUSH1 0x4 CALLDATASIZE LT PUSH2 0x62 JUMPI PUSH1 0x0 CALLDATALOAD PUSH1 0xE0 SHR DUP1 PUSH4 0x20965255 EQ PUSH2 0x67 JUMPI DUP1 PUSH4 0x3FA4F245 EQ PUSH2 0x85 JUMPI DUP1 PUSH4 0x55241077 EQ PUSH2 0xA3 JUMPI DUP1 PUSH4 0x771602F7 EQ PUSH2 0xBF JUMPI DUP1 PUSH4 0xA9CC4718 EQ PUSH2 0xEF JUMPI DUP1 PUSH4 0xF88E9FBF EQ PUSH2 0xF9 JUMPI JUMPDEST PUSH1 0x0 DUP1 REVERT JUMPDEST PUSH2 0x6F PUSH2 0x129 JUMP JUMPDEST PUSH1 0x40 MLOAD PUSH2 0x7C SWAP2 SWAP1 PUSH2 0x26A JUMP JUMPDEST PUSH1 0x40 MLOAD DUP1 SWAP2 SUB SWAP1 RETURN JUMPDEST PUSH2 0x8D PUSH2 0x132 JUMP JUMPDEST PUSH1 0x40 MLOAD PUSH2 0x9A SWAP2 SWAP1 PUSH2 0x26A JUMP JUMPDEST PUSH1 0x40 MLOAD DUP1 SWAP2 SUB SWAP1 RETURN JUMPDEST PUSH2 0xBD PUSH1 0x4 DUP1 CALLDATASIZE SUB DUP2 ADD SWAP1 PUSH2 0xB8 SWAP2 SWAP1 PUSH2 0x2B6 JUMP JUMPDEST PUSH2 0x138 JUMP JUMPDEST STOP JUMPDEST PUSH2 0xD9 PUSH1 0x4 DUP1 CALLDATASIZE SUB DUP2 ADD SWAP1 PUSH2 0xD4 SWAP2 SWAP1 PUSH2 0x2E3 JUMP JUMPDEST PUSH2 0x186 JUMP JUMPDEST PUSH1 0x40 MLOAD PUSH2 0xE6 SWAP2 SWAP1 PUSH2 0x26A JUMP JUMPDEST PUSH1 0x40 MLOAD DUP1 SWAP2 SUB SWAP1 RETURN JUMPDEST PUSH2 0xF7 PUSH2 0x1BE JUMP JUMPDEST STOP JUMPDEST PUSH2 0x113 PUSH1 0x4 DUP1 CALLDATASIZE SUB DUP2 ADD SWAP1 PUSH2 0x10E SWAP2 SWAP1 PUSH2 0x2E3 JUMP JUMPDEST PUSH2 0x1F9 JUMP JUMPDEST PUSH1 0x40 MLOAD PUSH2 0x120 SWAP2 SWAP1 PUSH2 0x26A JUMP JUMPDEST PUSH1 0x40 MLOAD DUP1 SWAP2 SUB SWAP1 RETURN JUMPDEST PUSH1 0x0 DUP1 SLOAD SWAP1 POP SWAP1 JUMP JUMPDEST PUSH1 0x0 SLOAD DUP2 JUMP JUMPDEST PUSH1 0x0 SLOAD DUP2 GT PUSH2 0x17C JUMPI PUSH1 0x40 MLOAD PUSH32 0x8C379A000000000000000000000000000000000000000000000000000000000 DUP2 MSTORE PUSH1 0x4 ADD PUSH2 0x173 SWAP1 PUSH2 0x3A6 JUMP JUMPDEST PUSH1 0x40 MLOAD DUP1 SWAP2 SUB SWAP1 REVERT JUMPDEST DUP1 PUSH1 0x0 DUP2 SWAP1 SSTORE POP POP JUMP JUMPDEST PUSH1 0x0 DUP1 DUP3 DUP5 PUSH2 0x195 SWAP2 SWAP1 PUSH2 0x3F5 JUMP JUMPDEST SWAP1 POP DUP4 DUP2 LT ISZERO DUP1 ISZERO PUSH2 0x1A7 JUMPI POP DUP3 DUP2 LT ISZERO JUMPDEST PUSH2 0x1B4 JUMPI PUSH2 0x1B3 PUSH2 0x429 JUMP JUMPDEST JUMPDEST DUP1 SWAP2 POP POP SWAP3 SWAP2 POP POP JUMP JUMPDEST PUSH1 0x40 MLOAD PUSH32 0x8C379A000000000000000000000000000000000000000000000000000000000 DUP2 MSTORE PUSH1 0x4 ADD PUSH2 0x1F0 SWAP1 PUSH2 0x4A4 JUMP JUMPDEST PUSH1 0x40 MLOAD DUP1 SWAP2 SUB SWAP1 REVERT JUMPDEST PUSH1 0x0 DUP1 DUP3 SUB PUSH2 0x23D JUMPI PUSH1 0x40 MLOAD PUSH32 0x8C379A000000000000000000000000000000000000000000000000000000000 DUP2 MSTORE PUSH1 0x4 ADD PUSH2 0x234 SWAP1 PUSH2 0x510 JUMP JUMPDEST PUSH1 0x40 MLOAD DUP1 SWAP2 SUB SWAP1 REVERT JUMPDEST DUP2 DUP4 PUSH2 0x249 SWAP2 SWAP1 PUSH2 0x55F JUMP JUMPDEST SWAP1 POP SWAP3 SWAP2 POP POP JUMP JUMPDEST PUSH1 0x0 DUP2 SWAP1 POP SWAP2 SWAP1 POP JUMP JUMPDEST PUSH2 0x264 DUP2 PUSH2 0x251 JUMP JUMPDEST DUP3 MSTORE POP POP JUMP JUMPDEST PUSH1 0x0 PUSH1 0x20 DUP3 ADD SWAP1 POP PUSH2 0x27F PUSH1 0x0 DUP4 ADD DUP5 PUSH2 0x25B JUMP JUMPDEST SWAP3 SWAP2 POP POP JUMP JUMPDEST PUSH1 0x0 DUP1 REVERT JUMPDEST PUSH2 0x293 DUP2 PUSH2 0x251 JUMP JUMPDEST DUP2 EQ PUSH2 0x29E JUMPI PUSH1 0x0 DUP1 REVERT JUMPDEST POP JUMP JUMPDEST PUSH1 0x0 DUP2 CALLDATALOAD SWAP1 POP PUSH2 0x2B0 DUP2 PUSH2 0x28A JUMP JUMPDEST SWAP3 SWAP2 POP POP JUMP JUMPDEST PUSH1 0x0 PUSH1 0x20 DUP3 DUP5 SUB SLT ISZERO PUSH2 0x2CC JUMPI PUSH2 0x2CB PUSH2 0x285 JUMP JUMPDEST JUMPDEST PUSH1 0x0 PUSH2 0x2DA DUP5 DUP3 DUP6 ADD PUSH2 0x2A1 JUMP JUMPDEST SWAP2 POP POP SWAP3 SWAP2 POP POP JUMP JUMPDEST PUSH1 0x0 DUP1 PUSH1 0x40 DUP4 DUP6 SUB SLT ISZERO PUSH2 0x2FA JUMPI PUSH2 0x2F9 PUSH2 0x285 JUMP JUMPDEST JUMPDEST PUSH1 0x0 PUSH2 0x308 DUP6 DUP3 DUP7 ADD PUSH2 0x2A1 JUMP JUMPDEST SWAP3 POP POP PUSH1 0x20 PUSH2 0x319 DUP6 DUP3 DUP7 ADD PUSH2 0x2A1 JUMP JUMPDEST SWAP2 POP POP SWAP3 POP SWAP3 SWAP1 POP JUMP JUMPDEST PUSH1 0x0 DUP3 DUP3 MSTORE PUSH1 0x20 DUP3 ADD SWAP1 POP SWAP3 SWAP2 POP POP JUMP JUMPDEST PUSH32 0x4E65772076616C7565206D7573742062652067726561746572207468616E2063 PUSH1 0x0 DUP3 ADD MSTORE PUSH32 0x757272656E742076616C75650000000000000000000000000000000000000000 PUSH1 0x20 DUP3 ADD MSTORE POP JUMP JUMPDEST PUSH1 0x0 PUSH2 0x390 PUSH1 0x2C DUP4 PUSH2 0x323 JUMP JUMPDEST SWAP2 POP PUSH2 0x39B DUP3 PUSH2 0x334 JUMP JUMPDEST PUSH1 0x40 DUP3 ADD SWAP1 POP SWAP2 SWAP1 POP JUMP JUMPDEST PUSH1 0x0 PUSH1 0x20 DUP3 ADD SWAP1 POP DUP2 DUP2 SUB PUSH1 0x0 DUP4 ADD MSTORE PUSH2 0x3BF DUP2 PUSH2 0x383 JUMP JUMPDEST SWAP1 POP SWAP2 SWAP1 POP JUMP JUMPDEST PUSH32 0x4E487B7100000000000000000000000000000000000000000000000000000000 PUSH1 0x0 MSTORE PUSH1 0x11 PUSH1 0x4 MSTORE PUSH1 0x24 PUSH1 0x0 REVERT JUMPDEST PUSH1 0x0 PUSH2 0x400 DUP3 PUSH2 0x251 JUMP JUMPDEST SWAP2 POP PUSH2 0x40B DUP4 PUSH2 0x251 JUMP JUMPDEST SWAP3 POP DUP3 DUP3 ADD SWAP1 POP DUP1 DUP3 GT ISZERO PUSH2 0x423 JUMPI PUSH2 0x422 PUSH2 0x3C6 JUMP JUMPDEST JUMPDEST SWAP3 SWAP2 POP POP JUMP JUMPDEST PUSH32 0x4E487B7100000000000000000000000000000000000000000000000000000000 PUSH1 0x0 MSTORE PUSH1 0x1 PUSH1 0x4 MSTORE PUSH1 0x24 PUSH1 0x0 REVERT JUMPDEST PUSH32 0x546869732066756E6374696F6E20616C77617973206661696C73000000000000 PUSH1 0x0 DUP3 ADD MSTORE POP JUMP JUMPDEST PUSH1 0x0 PUSH2 0x48E PUSH1 0x1A DUP4 PUSH2 0x323 JUMP JUMPDEST SWAP2 POP PUSH2 0x499 DUP3 PUSH2 0x458 JUMP JUMPDEST PUSH1 0x20 DUP3 ADD SWAP1 POP SWAP2 SWAP1 POP JUMP JUMPDEST PUSH1 0x0 PUSH1 0x20 DUP3 ADD SWAP1 POP DUP2 DUP2 SUB PUSH1 0x0 DUP4 ADD MSTORE PUSH2 0x4BD DUP2 PUSH2 0x481 JUMP JUMPDEST SWAP1 POP SWAP2 SWAP1 POP JUMP JUMPDEST PUSH32 0x43616E6E6F7420646976696465206279207A65726F0000000000000000000000 PUSH1 0x0 DUP3 ADD MSTORE POP JUMP JUMPDEST PUSH1 0x0 PUSH2 0x4FA PUSH1 0x15 DUP4 PUSH2 0x323 JUMP JUMPDEST SWAP2 POP PUSH2 0x505 DUP3 PUSH2 0x4C4 JUMP JUMPDEST PUSH1 0x20 DUP3 ADD SWAP1 POP SWAP2 SWAP1 POP JUMP JUMPDEST PUSH1 0x0 PUSH1 0x20 DUP3 ADD SWAP1 POP DUP2 DUP2 SUB PUSH1 0x0 DUP4 ADD MSTORE PUSH2 0x529 DUP2 PUSH2 0x4ED JUMP JUMPDEST SWAP1 POP SWAP2 SWAP1 POP JUMP JUMPDEST PUSH32 0x4E487B7100000000000000000000000000000000000000000000000000000000 PUSH1 0x0 MSTORE PUSH1 0x12 PUSH1 0x4 MSTORE PUSH1 0x24 PUSH1 0x0 REVERT JUMPDEST PUSH1 0x0 PUSH2 0x56A DUP3 PUSH2 0x251 JUMP JUMPDEST SWAP2 POP PUSH2 0x575 DUP4 PUSH2 0x251 JUMP JUMPDEST SWAP3 POP DUP3 PUSH2 0x585 JUMPI PUSH2 0x584 PUSH2 0x530 JUMP JUMPDEST JUMPDEST DUP3 DUP3 DIV SWAP1 POP SWAP3 SWAP2 POP POP JUMP INVALID LOG2 PUSH5 0x6970667358 0x22 SLT KECCAK256 INVALID 0xBE SSTORE DUP4 MLOAD GT DUP14 0xCB BASEFEE SELFBALANCE GASLIMIT 0xB4 EXTCODECOPY 0xAF SIGNEXTEND DIV CALL COINBASE DUP4 SWAP12 0xD7 GASLIMIT SWAP4 BALANCE GASLIMIT PUSH14 0xF247A3EF70564736F6C63430008 SGT STOP CALLER "
				},
				"gasEstimates": {
					"creation": {
						"codeDepositCost": "295600",
						"executionCost": "337",
						"totalCost": "295937"
					},
					"external": {
						"add(uint256,uint256)": "infinite",
						"divide(uint256,uint256)": "infinite",
						"fail()": "500",
						"getValue()": "2415",
						"setValue(uint256)": "24665",
						"value()": "2429"
					}
				},
				"methodIdentifiers": {
					"add(uint256,uint256)": "771602f7",
					"divide(uint256,uint256)": "f88e9fbf",
					"fail()": "a9cc4718",
					"getValue()": "20965255",
					"setValue(uint256)": "55241077",
					"value()": "3fa4f245"
				}
			},
			"storageLayout": {
				"storage": [
					{
						"astId": 3,
						"contract": "contracts/error_handling.sol:ExampleContract",
						"label": "value",
						"offset": 0,
						"slot": "0",
						"type": "t_uint256"
					}
				],
				"types": {
					"t_uint256": {
						"encoding": "inplace",
						"label": "uint256",
						"numberOfBytes": "32"
					}
				}
			},
			"userdoc": {
				"kind": "user",
				"methods": {},
				"version": 1
			}
		}
	}
}